{
  "address": "0xaca2c324CAd99A162b9D82f44dc1991A69b83C05",
  "abi": [
    {
      "anonymous": false,
      "inputs": [
        {
          "indexed": true,
          "internalType": "uint256",
          "name": "betId",
          "type": "uint256"
        },
        {
          "indexed": true,
          "internalType": "address",
          "name": "player2",
          "type": "address"
        }
      ],
      "name": "BetAccepted",
      "type": "event"
    },
    {
      "anonymous": false,
      "inputs": [
        {
          "indexed": true,
          "internalType": "uint256",
          "name": "betId",
          "type": "uint256"
        },
        {
          "indexed": true,
          "internalType": "address",
          "name": "player1",
          "type": "address"
        },
        {
          "indexed": true,
          "internalType": "uint256",
          "name": "amount",
          "type": "uint256"
        },
        {
          "indexed": false,
          "internalType": "uint256",
          "name": "targetPrice",
          "type": "uint256"
        },
        {
          "indexed": false,
          "internalType": "bool",
          "name": "isHigherChosen",
          "type": "bool"
        },
        {
          "indexed": false,
          "internalType": "uint256",
          "name": "targetTimestamp",
          "type": "uint256"
        }
      ],
      "name": "BetCreated",
      "type": "event"
    },
    {
      "anonymous": false,
      "inputs": [
        {
          "indexed": true,
          "internalType": "uint256",
          "name": "betId",
          "type": "uint256"
        }
      ],
      "name": "BetDeleted",
      "type": "event"
    },
    {
      "anonymous": false,
      "inputs": [
        {
          "indexed": true,
          "internalType": "uint256",
          "name": "betId",
          "type": "uint256"
        },
        {
          "indexed": true,
          "internalType": "address",
          "name": "winner",
          "type": "address"
        },
        {
          "indexed": true,
          "internalType": "address",
          "name": "loser",
          "type": "address"
        },
        {
          "indexed": false,
          "internalType": "uint256",
          "name": "amount",
          "type": "uint256"
        }
      ],
      "name": "BetFinished",
      "type": "event"
    },
    {
      "anonymous": false,
      "inputs": [
        {
          "indexed": true,
          "internalType": "address",
          "name": "previousOwner",
          "type": "address"
        },
        {
          "indexed": true,
          "internalType": "address",
          "name": "newOwner",
          "type": "address"
        }
      ],
      "name": "OwnershipTransferred",
      "type": "event"
    },
    {
      "inputs": [
        {
          "internalType": "uint256",
          "name": "_betId",
          "type": "uint256"
        }
      ],
      "name": "acceptBet",
      "outputs": [],
      "stateMutability": "payable",
      "type": "function"
    },
    {
      "inputs": [],
      "name": "betIdCounter",
      "outputs": [
        {
          "internalType": "uint256",
          "name": "",
          "type": "uint256"
        }
      ],
      "stateMutability": "view",
      "type": "function"
    },
    {
      "inputs": [
        {
          "internalType": "uint256",
          "name": "",
          "type": "uint256"
        }
      ],
      "name": "bets",
      "outputs": [
        {
          "internalType": "address",
          "name": "player1",
          "type": "address"
        },
        {
          "internalType": "address",
          "name": "player2",
          "type": "address"
        },
        {
          "internalType": "enum DuelContract.BetState",
          "name": "state",
          "type": "uint8"
        },
        {
          "internalType": "uint256",
          "name": "targetPrice",
          "type": "uint256"
        },
        {
          "internalType": "bool",
          "name": "isHigherChosen",
          "type": "bool"
        },
        {
          "internalType": "uint256",
          "name": "targetTimestamp",
          "type": "uint256"
        },
        {
          "internalType": "uint256",
          "name": "amount",
          "type": "uint256"
        }
      ],
      "stateMutability": "view",
      "type": "function"
    },
    {
      "inputs": [
        {
          "internalType": "uint256",
          "name": "_targetPrice",
          "type": "uint256"
        },
        {
          "internalType": "bool",
          "name": "_isHigherChosen",
          "type": "bool"
        },
        {
          "internalType": "uint256",
          "name": "_targetTimestamp",
          "type": "uint256"
        }
      ],
      "name": "createBet",
      "outputs": [],
      "stateMutability": "payable",
      "type": "function"
    },
    {
      "inputs": [
        {
          "internalType": "uint256",
          "name": "_betId",
          "type": "uint256"
        }
      ],
      "name": "deleteBet",
      "outputs": [],
      "stateMutability": "nonpayable",
      "type": "function"
    },
    {
      "inputs": [
        {
          "internalType": "uint256",
          "name": "_betId",
          "type": "uint256"
        },
        {
          "internalType": "uint256",
          "name": "_priceAtBetFinished",
          "type": "uint256"
        }
      ],
      "name": "finishBet",
      "outputs": [],
      "stateMutability": "nonpayable",
      "type": "function"
    },
    {
      "inputs": [],
      "name": "owner",
      "outputs": [
        {
          "internalType": "address",
          "name": "",
          "type": "address"
        }
      ],
      "stateMutability": "view",
      "type": "function"
    },
    {
      "inputs": [],
      "name": "renounceOwnership",
      "outputs": [],
      "stateMutability": "nonpayable",
      "type": "function"
    },
    {
      "inputs": [],
      "name": "timeoutValueForOneMinute",
      "outputs": [
        {
          "internalType": "uint256",
          "name": "",
          "type": "uint256"
        }
      ],
      "stateMutability": "view",
      "type": "function"
    },
    {
      "inputs": [
        {
          "internalType": "address",
          "name": "newOwner",
          "type": "address"
        }
      ],
      "name": "transferOwnership",
      "outputs": [],
      "stateMutability": "nonpayable",
      "type": "function"
    },
    {
      "inputs": [],
      "name": "withdraw",
      "outputs": [],
      "stateMutability": "nonpayable",
      "type": "function"
    },
    {
      "stateMutability": "payable",
      "type": "receive"
    }
  ],
  "transactionHash": "0x324cfb9056b39d094155c369baa41c41a858cfd3fd291660fcc0bfb388716406",
  "args": [],
  "numDeployments": 1,
  "solcInputHash": "2caf365d390e4f589c8357832580ff7a",
  "bytecode": "0x60a06040526000600155603c60805234801561001a57600080fd5b5061002433610029565b610079565b600080546001600160a01b038381166001600160a01b0319831681178455604051919092169283917f8be0079c531659141344cd1fd0a4f28419497f9722a3daafe3b4186f6b6457e09190a35050565b60805161106561009b600039600081816101f1015261083801526110656000f3fe6080604052600436106100a05760003560e01c8063715018a611610064578063715018a6146101a25780638da5cb5b146101b7578063ac56552a146101df578063bb642bb814610213578063c72e2fa414610233578063f2fde38b1461024657600080fd5b806304f29ae7146100ac57806322af00fa146100ce578063232e30e3146101565780633ccfd60b1461017a5780636c0c27e11461018f57600080fd5b366100a757005b600080fd5b3480156100b857600080fd5b506100cc6100c7366004610e91565b610266565b005b3480156100da57600080fd5b5061013a6100e9366004610eb3565b60026020819052600091825260409091208054600182015492820154600383015460048401546005909401546001600160a01b039384169593841694600160a01b90940460ff908116949216919087565b60405161014d9796959493929190610ee2565b60405180910390f35b34801561016257600080fd5b5061016c60015481565b60405190815260200161014d565b34801561018657600080fd5b506100cc61056c565b6100cc61019d366004610eb3565b61065d565b3480156101ae57600080fd5b506100cc610944565b3480156101c357600080fd5b506000546040516001600160a01b03909116815260200161014d565b3480156101eb57600080fd5b5061016c7f000000000000000000000000000000000000000000000000000000000000000081565b34801561021f57600080fd5b506100cc61022e366004610eb3565b610958565b6100cc610241366004610f41565b610b56565b34801561025257600080fd5b506100cc610261366004610f7e565b610d6e565b6000546001600160a01b031633146102c55760405162461bcd60e51b815260206004820152601b60248201527f536f7272792c20796f75277265206e6f742074686520626f737321000000000060448201526064015b60405180910390fd5b6000828152600260205260409020600180820154600160a01b900460ff1660038111156102f4576102f4610ecc565b146103415760405162461bcd60e51b815260206004820152601c60248201527f426574206973206e6f7420696e2041434345505445442073746174650000000060448201526064016102bc565b428160040154106103945760405162461bcd60e51b815260206004820152601860248201527f426574206973206e6f7420636f6d706c6574656420796574000000000000000060448201526064016102bc565b8060020154821180156103b05750600381015460ff1615156001145b806103ce57508060020154821080156103ce5750600381015460ff16155b156104a4576000838152600260205260409020600101805460ff60a01b1916600160a11b179055805460058201546001600160a01b03909116906108fc90600a9061041a906013610fc4565b6104249190610fe1565b6040518115909202916000818181858888f1935050505015801561044c573d6000803e3d6000fd5b506001810154815460058301546040519081526001600160a01b03928316929091169085907f5c07314e1f88fb33b34d3771ca8b627afc1932a0fcdba120e82846dfa4c24400906020015b60405180910390a4505050565b6000838152600260205260409020600101805460ff60a01b1916600360a01b179055805460058201546001600160a01b03909116906108fc90600a906104eb906013610fc4565b6104f59190610fe1565b6040518115909202916000818181858888f1935050505015801561051d573d6000803e3d6000fd5b508054600182015460058301546040519081526001600160a01b03928316929091169085907f5c07314e1f88fb33b34d3771ca8b627afc1932a0fcdba120e82846dfa4c2440090602001610497565b6000546001600160a01b031633146105c65760405162461bcd60e51b815260206004820152601b60248201527f536f7272792c20796f75277265206e6f742074686520626f737321000000000060448201526064016102bc565b47806106205760405162461bcd60e51b815260206004820152602360248201527f436f6e747261637420686173206e6f2062616c616e636520746f20776974686460448201526272617760e81b60648201526084016102bc565b600080546040516001600160a01b039091169183156108fc02918491818181858888f19350505050158015610659573d6000803e3d6000fd5b5050565b6000818152600260209081526040808320815160e08101835281546001600160a01b039081168252600183015490811694820194909452929091830190600160a01b900460ff1660038111156106b5576106b5610ecc565b60038111156106c6576106c6610ecc565b815260028201546020820152600382015460ff1615156040820152600482015460608201526005909101546080909101528051909150336001600160a01b03909116036107555760405162461bcd60e51b815260206004820152601c60248201527f596f752063616e2774206368616c6c656e676520796f757273656c660000000060448201526064016102bc565b60008160400151600381111561076d5761076d610ecc565b146107c55760405162461bcd60e51b815260206004820152602260248201527f426574206d7573742062652057414954494e4720746f20626520616363657074604482015261195960f21b60648201526084016102bc565b348160c0015111156108335760405162461bcd60e51b815260206004820152603160248201527f596f7520686176656e27742073656e7420726571756972656420616d6f756e74604482015270081bd988115512081d1bc81858d8d95c1d607a1b60648201526084016102bc565b61085d7f000000000000000000000000000000000000000000000000000000000000000042611003565b8160a00151116108d55760405162461bcd60e51b815260206004820152603c60248201527f426574732063616e206c6173746c792062652061636365707465642031206d6960448201527f6e757465206265666f726520746865206265742066696e69736865730000000060648201526084016102bc565b60008281526002602090815260408083206001018054600160a01b6001600160a81b031990911660ff60a01b193316171790559083015190516001600160a01b039091169184917fb727a22534e43d337addefe6245e691859b29f7bf356bc7e6d77ff92070fe1249190a35050565b61094c610de7565b6109566000610e41565b565b6000818152600260209081526040808320815160e08101835281546001600160a01b039081168252600183015490811694820194909452929091830190600160a01b900460ff1660038111156109b0576109b0610ecc565b60038111156109c1576109c1610ecc565b815260028201546020820152600382015460ff16151560408201526004820154606082015260059091015460809091015280519091506001600160a01b03163314610a655760405162461bcd60e51b815260206004820152602e60248201527f596f75206d75737420626520706c61796572203120746f2064656c657465207460448201526d1a194818995d081c995c5d595cdd60921b60648201526084016102bc565b600081604001516003811115610a7d57610a7d610ecc565b14610ad45760405162461bcd60e51b815260206004820152602160248201527f426574206d7573742062652057414954494e4720746f2062652064656c6574656044820152601960fa1b60648201526084016102bc565b600082815260026020526040808220600101805460ff60a01b1916600160a11b17905560c08301519051339282156108fc02929190818181858888f19350505050158015610b26573d6000803e3d6000fd5b5060405182907f17272466b3901abd85bd358a42222b12af058231f7f4eedfc337c90e5f98fcfe90600090a25050565b60008311610bbe5760405162461bcd60e51b815260206004820152602f60248201527f596f752063616e6e6f742063726561746520626574207769746820746172676560448201526e074207072696365206265696e67203608c1b60648201526084016102bc565b428111610c335760405162461bcd60e51b815260206004820152603b60248201527f4c61737420626c6f636b206e756d62657220697320736d616c6c65722074686160448201527f6e207468652063757272656e7420626c6f636b206e756d62657221000000000060648201526084016102bc565b60018054906000610c4383611016565b90915550506040805160e0810182523381526000602080830182815283850183815260608501899052871515608086015260a085018790523460c0860152600180548552600290935294909220835181546001600160a01b039182166001600160a01b03199182161783559351928201805493909116938316841781559451939490939290916001600160a81b03191617600160a01b836003811115610ceb57610ceb610ecc565b02179055506060828101516002830155608083015160038301805460ff191691151591909117905560a0830151600483015560c09092015160059091015560015460408051868152851515602082015290810184905234923392917f3f6018130406d92f85f24680fc7de5fb4e228784ec73ade61bfde51f377e8fd89101610497565b610d76610de7565b6001600160a01b038116610ddb5760405162461bcd60e51b815260206004820152602660248201527f4f776e61626c653a206e6577206f776e657220697320746865207a65726f206160448201526564647265737360d01b60648201526084016102bc565b610de481610e41565b50565b6000546001600160a01b031633146109565760405162461bcd60e51b815260206004820181905260248201527f4f776e61626c653a2063616c6c6572206973206e6f7420746865206f776e657260448201526064016102bc565b600080546001600160a01b038381166001600160a01b0319831681178455604051919092169283917f8be0079c531659141344cd1fd0a4f28419497f9722a3daafe3b4186f6b6457e09190a35050565b60008060408385031215610ea457600080fd5b50508035926020909101359150565b600060208284031215610ec557600080fd5b5035919050565b634e487b7160e01b600052602160045260246000fd5b6001600160a01b0388811682528716602082015260e0810160048710610f1857634e487b7160e01b600052602160045260246000fd5b60408201969096526060810194909452911515608084015260a083015260c09091015292915050565b600080600060608486031215610f5657600080fd5b8335925060208401358015158114610f6d57600080fd5b929592945050506040919091013590565b600060208284031215610f9057600080fd5b81356001600160a01b0381168114610fa757600080fd5b9392505050565b634e487b7160e01b600052601160045260246000fd5b8082028115828204841417610fdb57610fdb610fae565b92915050565b600082610ffe57634e487b7160e01b600052601260045260246000fd5b500490565b80820180821115610fdb57610fdb610fae565b60006001820161102857611028610fae565b506001019056fea2646970667358221220f118521901a29a3694bb9d212cefc620b89d56039d51261ee7ca5a3cba14477764736f6c63430008110033",
  "devdoc": {
    "author": "0xBabacan",
    "details": "Currently it will be used for challenging other accounts to bet on ETH price Sports, finance and other topic can be implemented for betting in future     ",
    "kind": "dev",
    "methods": {
      "owner()": {
        "details": "Returns the address of the current owner."
      },
      "renounceOwnership()": {
        "details": "Leaves the contract without owner. It will not be possible to call `onlyOwner` functions. Can only be called by the current owner. NOTE: Renouncing ownership will leave the contract without an owner, thereby disabling any functionality that is only available to the owner."
      },
      "transferOwnership(address)": {
        "details": "Transfers ownership of the contract to a new account (`newOwner`). Can only be called by the current owner."
      }
    },
    "title": "Duel",
    "version": 1
  },
  "userdoc": {
    "kind": "user",
    "methods": {},
    "notice": "A betting duello game contract.",
    "version": 1
  },
  "storageLayout": {
    "storage": [
      {
        "astId": 7,
        "contract": "contracts/DuelContract.sol:DuelContract",
        "label": "_owner",
        "offset": 0,
        "slot": "0",
        "type": "t_address"
      },
      {
        "astId": 144,
        "contract": "contracts/DuelContract.sol:DuelContract",
        "label": "betIdCounter",
        "offset": 0,
        "slot": "1",
        "type": "t_uint256"
      },
      {
        "astId": 173,
        "contract": "contracts/DuelContract.sol:DuelContract",
        "label": "bets",
        "offset": 0,
        "slot": "2",
        "type": "t_mapping(t_uint256,t_struct(Bet)168_storage)"
      }
    ],
    "types": {
      "t_address": {
        "encoding": "inplace",
        "label": "address",
        "numberOfBytes": "20"
      },
      "t_bool": {
        "encoding": "inplace",
        "label": "bool",
        "numberOfBytes": "1"
      },
      "t_enum(BetState)152": {
        "encoding": "inplace",
        "label": "enum DuelContract.BetState",
        "numberOfBytes": "1"
      },
      "t_mapping(t_uint256,t_struct(Bet)168_storage)": {
        "encoding": "mapping",
        "key": "t_uint256",
        "label": "mapping(uint256 => struct DuelContract.Bet)",
        "numberOfBytes": "32",
        "value": "t_struct(Bet)168_storage"
      },
      "t_struct(Bet)168_storage": {
        "encoding": "inplace",
        "label": "struct DuelContract.Bet",
        "members": [
          {
            "astId": 154,
            "contract": "contracts/DuelContract.sol:DuelContract",
            "label": "player1",
            "offset": 0,
            "slot": "0",
            "type": "t_address"
          },
          {
            "astId": 156,
            "contract": "contracts/DuelContract.sol:DuelContract",
            "label": "player2",
            "offset": 0,
            "slot": "1",
            "type": "t_address"
          },
          {
            "astId": 159,
            "contract": "contracts/DuelContract.sol:DuelContract",
            "label": "state",
            "offset": 20,
            "slot": "1",
            "type": "t_enum(BetState)152"
          },
          {
            "astId": 161,
            "contract": "contracts/DuelContract.sol:DuelContract",
            "label": "targetPrice",
            "offset": 0,
            "slot": "2",
            "type": "t_uint256"
          },
          {
            "astId": 163,
            "contract": "contracts/DuelContract.sol:DuelContract",
            "label": "isHigherChosen",
            "offset": 0,
            "slot": "3",
            "type": "t_bool"
          },
          {
            "astId": 165,
            "contract": "contracts/DuelContract.sol:DuelContract",
            "label": "targetTimestamp",
            "offset": 0,
            "slot": "4",
            "type": "t_uint256"
          },
          {
            "astId": 167,
            "contract": "contracts/DuelContract.sol:DuelContract",
            "label": "amount",
            "offset": 0,
            "slot": "5",
            "type": "t_uint256"
          }
        ],
        "numberOfBytes": "192"
      },
      "t_uint256": {
        "encoding": "inplace",
        "label": "uint256",
        "numberOfBytes": "32"
      }
    }
  }
}